{
  "_format": "hh-sol-artifact-1",
  "contractName": "DCAHub",
  "sourceName": "contracts/DCAHub/DCAHub.sol",
  "abi": [
    {
      "inputs": [
        {
          "internalType": "address",
          "name": "_immediateGovernor",
          "type": "address"
        },
        {
          "internalType": "address",
          "name": "_timeLockedGovernor",
          "type": "address"
        },
        {
          "internalType": "contract IPriceOracle",
          "name": "_oracle",
          "type": "address"
        },
        {
          "internalType": "contract IDCAPermissionManager",
          "name": "_permissionManager",
          "type": "address"
        }
      ],
      "stateMutability": "nonpayable",
      "type": "constructor"
    },
    {
      "anonymous": false,
      "inputs": [
        {
          "indexed": true,
          "internalType": "address",
          "name": "depositor",
          "type": "address"
        },
        {
          "indexed": true,
          "internalType": "address",
          "name": "owner",
          "type": "address"
        },
        {
          "indexed": false,
          "internalType": "uint256",
          "name": "positionId",
          "type": "uint256"
        },
        {
          "indexed": false,
          "internalType": "address",
          "name": "fromToken",
          "type": "address"
        },
        {
          "indexed": false,
          "internalType": "address",
          "name": "toToken",
          "type": "address"
        },
        {
          "indexed": false,
          "internalType": "uint32",
          "name": "swapInterval",
          "type": "uint32"
        },
        {
          "indexed": false,
          "internalType": "uint120",
          "name": "rate",
          "type": "uint120"
        },
        {
          "indexed": false,
          "internalType": "uint32",
          "name": "startingSwap",
          "type": "uint32"
        },
        {
          "indexed": false,
          "internalType": "uint32",
          "name": "lastSwap",
          "type": "uint32"
        }
      ],
      "name": "Deposited",
      "type": "event"
    },
    {
      "anonymous": false,
      "inputs": [
        {
          "indexed": false,
          "internalType": "uint32",
          "name": "_feeSet",
          "type": "uint32"
        }
      ],
      "name": "LoanFeeSet",
      "type": "event"
    },
    {
      "anonymous": false,
      "inputs": [
        {
          "indexed": true,
          "internalType": "address",
          "name": "sender",
          "type": "address"
        },
        {
          "indexed": true,
          "internalType": "address",
          "name": "to",
          "type": "address"
        },
        {
          "components": [
            {
              "internalType": "address",
              "name": "token",
              "type": "address"
            },
            {
              "internalType": "uint256",
              "name": "amount",
              "type": "uint256"
            }
          ],
          "indexed": false,
          "internalType": "struct IDCAHub.AmountOfToken[]",
          "name": "loan",
          "type": "tuple[]"
        },
        {
          "indexed": false,
          "internalType": "uint32",
          "name": "fee",
          "type": "uint32"
        }
      ],
      "name": "Loaned",
      "type": "event"
    },
    {
      "anonymous": false,
      "inputs": [
        {
          "indexed": true,
          "internalType": "address",
          "name": "user",
          "type": "address"
        },
        {
          "indexed": false,
          "internalType": "uint256",
          "name": "positionId",
          "type": "uint256"
        },
        {
          "indexed": false,
          "internalType": "uint120",
          "name": "rate",
          "type": "uint120"
        },
        {
          "indexed": false,
          "internalType": "uint32",
          "name": "startingSwap",
          "type": "uint32"
        },
        {
          "indexed": false,
          "internalType": "uint32",
          "name": "lastSwap",
          "type": "uint32"
        }
      ],
      "name": "Modified",
      "type": "event"
    },
    {
      "anonymous": false,
      "inputs": [
        {
          "indexed": false,
          "internalType": "contract IPriceOracle",
          "name": "_oracle",
          "type": "address"
        }
      ],
      "name": "OracleSet",
      "type": "event"
    },
    {
      "anonymous": false,
      "inputs": [
        {
          "indexed": false,
          "internalType": "address",
          "name": "account",
          "type": "address"
        }
      ],
      "name": "Paused",
      "type": "event"
    },
    {
      "anonymous": false,
      "inputs": [
        {
          "indexed": false,
          "internalType": "uint16",
          "name": "_platformFeeRatio",
          "type": "uint16"
        }
      ],
      "name": "PlatformFeeRatioSet",
      "type": "event"
    },
    {
      "anonymous": false,
      "inputs": [
        {
          "indexed": true,
          "internalType": "bytes32",
          "name": "role",
          "type": "bytes32"
        },
        {
          "indexed": true,
          "internalType": "bytes32",
          "name": "previousAdminRole",
          "type": "bytes32"
        },
        {
          "indexed": true,
          "internalType": "bytes32",
          "name": "newAdminRole",
          "type": "bytes32"
        }
      ],
      "name": "RoleAdminChanged",
      "type": "event"
    },
    {
      "anonymous": false,
      "inputs": [
        {
          "indexed": true,
          "internalType": "bytes32",
          "name": "role",
          "type": "bytes32"
        },
        {
          "indexed": true,
          "internalType": "address",
          "name": "account",
          "type": "address"
        },
        {
          "indexed": true,
          "internalType": "address",
          "name": "sender",
          "type": "address"
        }
      ],
      "name": "RoleGranted",
      "type": "event"
    },
    {
      "anonymous": false,
      "inputs": [
        {
          "indexed": true,
          "internalType": "bytes32",
          "name": "role",
          "type": "bytes32"
        },
        {
          "indexed": true,
          "internalType": "address",
          "name": "account",
          "type": "address"
        },
        {
          "indexed": true,
          "internalType": "address",
          "name": "sender",
          "type": "address"
        }
      ],
      "name": "RoleRevoked",
      "type": "event"
    },
    {
      "anonymous": false,
      "inputs": [
        {
          "indexed": false,
          "internalType": "uint32",
          "name": "_feeSet",
          "type": "uint32"
        }
      ],
      "name": "SwapFeeSet",
      "type": "event"
    },
    {
      "anonymous": false,
      "inputs": [
        {
          "indexed": false,
          "internalType": "uint32[]",
          "name": "_swapIntervals",
          "type": "uint32[]"
        }
      ],
      "name": "SwapIntervalsAllowed",
      "type": "event"
    },
    {
      "anonymous": false,
      "inputs": [
        {
          "indexed": false,
          "internalType": "uint32[]",
          "name": "_swapIntervals",
          "type": "uint32[]"
        }
      ],
      "name": "SwapIntervalsForbidden",
      "type": "event"
    },
    {
      "anonymous": false,
      "inputs": [
        {
          "indexed": true,
          "internalType": "address",
          "name": "sender",
          "type": "address"
        },
        {
          "indexed": true,
          "internalType": "address",
          "name": "rewardRecipient",
          "type": "address"
        },
        {
          "indexed": true,
          "internalType": "address",
          "name": "callbackHandler",
          "type": "address"
        },
        {
          "components": [
            {
              "components": [
                {
                  "internalType": "address",
                  "name": "token",
                  "type": "address"
                },
                {
                  "internalType": "uint256",
                  "name": "reward",
                  "type": "uint256"
                },
                {
                  "internalType": "uint256",
                  "name": "toProvide",
                  "type": "uint256"
                },
                {
                  "internalType": "uint256",
                  "name": "platformFee",
                  "type": "uint256"
                }
              ],
              "internalType": "struct IDCAHubSwapHandler.TokenInSwap[]",
              "name": "tokens",
              "type": "tuple[]"
            },
            {
              "components": [
                {
                  "internalType": "address",
                  "name": "tokenA",
                  "type": "address"
                },
                {
                  "internalType": "address",
                  "name": "tokenB",
                  "type": "address"
                },
                {
                  "internalType": "uint256",
                  "name": "ratioAToB",
                  "type": "uint256"
                },
                {
                  "internalType": "uint256",
                  "name": "ratioBToA",
                  "type": "uint256"
                },
                {
                  "internalType": "bytes1",
                  "name": "intervalsInSwap",
                  "type": "bytes1"
                }
              ],
              "internalType": "struct IDCAHubSwapHandler.PairInSwap[]",
              "name": "pairs",
              "type": "tuple[]"
            }
          ],
          "indexed": false,
          "internalType": "struct IDCAHubSwapHandler.SwapInfo",
          "name": "swapInformation",
          "type": "tuple"
        },
        {
          "indexed": false,
          "internalType": "uint256[]",
          "name": "borrowed",
          "type": "uint256[]"
        },
        {
          "indexed": false,
          "internalType": "uint32",
          "name": "fee",
          "type": "uint32"
        }
      ],
      "name": "Swapped",
      "type": "event"
    },
    {
      "anonymous": false,
      "inputs": [
        {
          "indexed": true,
          "internalType": "address",
          "name": "user",
          "type": "address"
        },
        {
          "indexed": true,
          "internalType": "address",
          "name": "recipientUnswapped",
          "type": "address"
        },
        {
          "indexed": true,
          "internalType": "address",
          "name": "recipientSwapped",
          "type": "address"
        },
        {
          "indexed": false,
          "internalType": "uint256",
          "name": "positionId",
          "type": "uint256"
        },
        {
          "indexed": false,
          "internalType": "uint256",
          "name": "returnedUnswapped",
          "type": "uint256"
        },
        {
          "indexed": false,
          "internalType": "uint256",
          "name": "returnedSwapped",
          "type": "uint256"
        }
      ],
      "name": "Terminated",
      "type": "event"
    },
    {
      "anonymous": false,
      "inputs": [
        {
          "indexed": false,
          "internalType": "address",
          "name": "account",
          "type": "address"
        }
      ],
      "name": "Unpaused",
      "type": "event"
    },
    {
      "anonymous": false,
      "inputs": [
        {
          "indexed": true,
          "internalType": "address",
          "name": "withdrawer",
          "type": "address"
        },
        {
          "indexed": true,
          "internalType": "address",
          "name": "recipient",
          "type": "address"
        },
        {
          "indexed": false,
          "internalType": "uint256",
          "name": "positionId",
          "type": "uint256"
        },
        {
          "indexed": false,
          "internalType": "address",
          "name": "token",
          "type": "address"
        },
        {
          "indexed": false,
          "internalType": "uint256",
          "name": "amount",
          "type": "uint256"
        }
      ],
      "name": "Withdrew",
      "type": "event"
    },
    {
      "anonymous": false,
      "inputs": [
        {
          "indexed": true,
          "internalType": "address",
          "name": "sender",
          "type": "address"
        },
        {
          "indexed": true,
          "internalType": "address",
          "name": "recipient",
          "type": "address"
        },
        {
          "components": [
            {
              "internalType": "address",
              "name": "token",
              "type": "address"
            },
            {
              "internalType": "uint256",
              "name": "amount",
              "type": "uint256"
            }
          ],
          "indexed": false,
          "internalType": "struct IDCAHub.AmountOfToken[]",
          "name": "amounts",
          "type": "tuple[]"
        }
      ],
      "name": "WithdrewFromPlatform",
      "type": "event"
    },
    {
      "anonymous": false,
      "inputs": [
        {
          "indexed": true,
          "internalType": "address",
          "name": "withdrawer",
          "type": "address"
        },
        {
          "indexed": true,
          "internalType": "address",
          "name": "recipient",
          "type": "address"
        },
        {
          "components": [
            {
              "internalType": "address",
              "name": "token",
              "type": "address"
            },
            {
              "internalType": "uint256[]",
              "name": "positionIds",
              "type": "uint256[]"
            }
          ],
          "indexed": false,
          "internalType": "struct IDCAHubPositionHandler.PositionSet[]",
          "name": "positions",
          "type": "tuple[]"
        },
        {
          "indexed": false,
          "internalType": "uint256[]",
          "name": "withdrew",
          "type": "uint256[]"
        }
      ],
      "name": "WithdrewMany",
      "type": "event"
    },
    {
      "inputs": [],
      "name": "DEFAULT_ADMIN_ROLE",
      "outputs": [
        {
          "internalType": "bytes32",
          "name": "",
          "type": "bytes32"
        }
      ],
      "stateMutability": "view",
      "type": "function"
    },
    {
      "inputs": [],
      "name": "FEE_PRECISION",
      "outputs": [
        {
          "internalType": "uint32",
          "name": "",
          "type": "uint32"
        }
      ],
      "stateMutability": "pure",
      "type": "function"
    },
    {
      "inputs": [],
      "name": "IMMEDIATE_ROLE",
      "outputs": [
        {
          "internalType": "bytes32",
          "name": "",
          "type": "bytes32"
        }
      ],
      "stateMutability": "view",
      "type": "function"
    },
    {
      "inputs": [],
      "name": "MAX_FEE",
      "outputs": [
        {
          "internalType": "uint32",
          "name": "",
          "type": "uint32"
        }
      ],
      "stateMutability": "view",
      "type": "function"
    },
    {
      "inputs": [],
      "name": "MAX_PLATFORM_FEE_RATIO",
      "outputs": [
        {
          "internalType": "uint16",
          "name": "",
          "type": "uint16"
        }
      ],
      "stateMutability": "view",
      "type": "function"
    },
    {
      "inputs": [],
      "name": "PLATFORM_WITHDRAW_ROLE",
      "outputs": [
        {
          "internalType": "bytes32",
          "name": "",
          "type": "bytes32"
        }
      ],
      "stateMutability": "view",
      "type": "function"
    },
    {
      "inputs": [],
      "name": "TIME_LOCKED_ROLE",
      "outputs": [
        {
          "internalType": "bytes32",
          "name": "",
          "type": "bytes32"
        }
      ],
      "stateMutability": "view",
      "type": "function"
    },
    {
      "inputs": [
        {
          "internalType": "address",
          "name": "_tokenA",
          "type": "address"
        },
        {
          "internalType": "address",
          "name": "_tokenB",
          "type": "address"
        },
        {
          "internalType": "bytes1",
          "name": "_swapIntervalMask",
          "type": "bytes1"
        },
        {
          "internalType": "uint32",
          "name": "_swapNumber",
          "type": "uint32"
        }
      ],
      "name": "accumRatio",
      "outputs": [
        {
          "components": [
            {
              "internalType": "uint256",
              "name": "accumRatioAToB",
              "type": "uint256"
            },
            {
              "internalType": "uint256",
              "name": "accumRatioBToA",
              "type": "uint256"
            }
          ],
          "internalType": "struct IDCAHubParameters.AccumRatio",
          "name": "",
          "type": "tuple"
        }
      ],
      "stateMutability": "view",
      "type": "function"
    },
    {
      "inputs": [
        {
          "internalType": "address",
          "name": "",
          "type": "address"
        },
        {
          "internalType": "address",
          "name": "",
          "type": "address"
        }
      ],
      "name": "activeSwapIntervals",
      "outputs": [
        {
          "internalType": "bytes1",
          "name": "",
          "type": "bytes1"
        }
      ],
      "stateMutability": "view",
      "type": "function"
    },
    {
      "inputs": [
        {
          "internalType": "uint32[]",
          "name": "_swapIntervals",
          "type": "uint32[]"
        }
      ],
      "name": "addSwapIntervalsToAllowedList",
      "outputs": [],
      "stateMutability": "nonpayable",
      "type": "function"
    },
    {
      "inputs": [],
      "name": "allowedSwapIntervals",
      "outputs": [
        {
          "internalType": "bytes1",
          "name": "",
          "type": "bytes1"
        }
      ],
      "stateMutability": "view",
      "type": "function"
    },
    {
      "inputs": [
        {
          "internalType": "address",
          "name": "_from",
          "type": "address"
        },
        {
          "internalType": "address",
          "name": "_to",
          "type": "address"
        },
        {
          "internalType": "uint256",
          "name": "_amount",
          "type": "uint256"
        },
        {
          "internalType": "uint32",
          "name": "_amountOfSwaps",
          "type": "uint32"
        },
        {
          "internalType": "uint32",
          "name": "_swapInterval",
          "type": "uint32"
        },
        {
          "internalType": "address",
          "name": "_owner",
          "type": "address"
        },
        {
          "components": [
            {
              "internalType": "address",
              "name": "operator",
              "type": "address"
            },
            {
              "internalType": "enum IDCAPermissionManager.Permission[]",
              "name": "permissions",
              "type": "uint8[]"
            }
          ],
          "internalType": "struct IDCAPermissionManager.PermissionSet[]",
          "name": "_permissions",
          "type": "tuple[]"
        }
      ],
      "name": "deposit",
      "outputs": [
        {
          "internalType": "uint256",
          "name": "",
          "type": "uint256"
        }
      ],
      "stateMutability": "nonpayable",
      "type": "function"
    },
    {
      "inputs": [
        {
          "internalType": "address[]",
          "name": "_tokens",
          "type": "address[]"
        },
        {
          "components": [
            {
              "internalType": "uint8",
              "name": "indexTokenA",
              "type": "uint8"
            },
            {
              "internalType": "uint8",
              "name": "indexTokenB",
              "type": "uint8"
            }
          ],
          "internalType": "struct IDCAHubSwapHandler.PairIndexes[]",
          "name": "_pairs",
          "type": "tuple[]"
        }
      ],
      "name": "getNextSwapInfo",
      "outputs": [
        {
          "components": [
            {
              "components": [
                {
                  "internalType": "address",
                  "name": "token",
                  "type": "address"
                },
                {
                  "internalType": "uint256",
                  "name": "reward",
                  "type": "uint256"
                },
                {
                  "internalType": "uint256",
                  "name": "toProvide",
                  "type": "uint256"
                },
                {
                  "internalType": "uint256",
                  "name": "platformFee",
                  "type": "uint256"
                }
              ],
              "internalType": "struct IDCAHubSwapHandler.TokenInSwap[]",
              "name": "tokens",
              "type": "tuple[]"
            },
            {
              "components": [
                {
                  "internalType": "address",
                  "name": "tokenA",
                  "type": "address"
                },
                {
                  "internalType": "address",
                  "name": "tokenB",
                  "type": "address"
                },
                {
                  "internalType": "uint256",
                  "name": "ratioAToB",
                  "type": "uint256"
                },
                {
                  "internalType": "uint256",
                  "name": "ratioBToA",
                  "type": "uint256"
                },
                {
                  "internalType": "bytes1",
                  "name": "intervalsInSwap",
                  "type": "bytes1"
                }
              ],
              "internalType": "struct IDCAHubSwapHandler.PairInSwap[]",
              "name": "pairs",
              "type": "tuple[]"
            }
          ],
          "internalType": "struct IDCAHubSwapHandler.SwapInfo",
          "name": "_swapInformation",
          "type": "tuple"
        }
      ],
      "stateMutability": "view",
      "type": "function"
    },
    {
      "inputs": [
        {
          "internalType": "bytes32",
          "name": "role",
          "type": "bytes32"
        }
      ],
      "name": "getRoleAdmin",
      "outputs": [
        {
          "internalType": "bytes32",
          "name": "",
          "type": "bytes32"
        }
      ],
      "stateMutability": "view",
      "type": "function"
    },
    {
      "inputs": [
        {
          "internalType": "bytes32",
          "name": "role",
          "type": "bytes32"
        },
        {
          "internalType": "address",
          "name": "account",
          "type": "address"
        }
      ],
      "name": "grantRole",
      "outputs": [],
      "stateMutability": "nonpayable",
      "type": "function"
    },
    {
      "inputs": [
        {
          "internalType": "bytes32",
          "name": "role",
          "type": "bytes32"
        },
        {
          "internalType": "address",
          "name": "account",
          "type": "address"
        }
      ],
      "name": "hasRole",
      "outputs": [
        {
          "internalType": "bool",
          "name": "",
          "type": "bool"
        }
      ],
      "stateMutability": "view",
      "type": "function"
    },
    {
      "inputs": [
        {
          "internalType": "uint256",
          "name": "_positionId",
          "type": "uint256"
        },
        {
          "internalType": "uint256",
          "name": "_amount",
          "type": "uint256"
        },
        {
          "internalType": "uint32",
          "name": "_newAmountOfSwaps",
          "type": "uint32"
        }
      ],
      "name": "increasePosition",
      "outputs": [],
      "stateMutability": "nonpayable",
      "type": "function"
    },
    {
      "inputs": [
        {
          "components": [
            {
              "internalType": "address",
              "name": "token",
              "type": "address"
            },
            {
              "internalType": "uint256",
              "name": "amount",
              "type": "uint256"
            }
          ],
          "internalType": "struct IDCAHub.AmountOfToken[]",
          "name": "_loan",
          "type": "tuple[]"
        },
        {
          "internalType": "address",
          "name": "_to",
          "type": "address"
        },
        {
          "internalType": "bytes",
          "name": "_data",
          "type": "bytes"
        }
      ],
      "name": "loan",
      "outputs": [],
      "stateMutability": "nonpayable",
      "type": "function"
    },
    {
      "inputs": [],
      "name": "loanFee",
      "outputs": [
        {
          "internalType": "uint32",
          "name": "",
          "type": "uint32"
        }
      ],
      "stateMutability": "view",
      "type": "function"
    },
    {
      "inputs": [],
      "name": "oracle",
      "outputs": [
        {
          "internalType": "contract IPriceOracle",
          "name": "",
          "type": "address"
        }
      ],
      "stateMutability": "view",
      "type": "function"
    },
    {
      "inputs": [],
      "name": "pause",
      "outputs": [],
      "stateMutability": "nonpayable",
      "type": "function"
    },
    {
      "inputs": [],
      "name": "paused",
      "outputs": [
        {
          "internalType": "bool",
          "name": "",
          "type": "bool"
        }
      ],
      "stateMutability": "view",
      "type": "function"
    },
    {
      "inputs": [],
      "name": "permissionManager",
      "outputs": [
        {
          "internalType": "contract IDCAPermissionManager",
          "name": "",
          "type": "address"
        }
      ],
      "stateMutability": "view",
      "type": "function"
    },
    {
      "inputs": [
        {
          "internalType": "address",
          "name": "",
          "type": "address"
        }
      ],
      "name": "platformBalance",
      "outputs": [
        {
          "internalType": "uint256",
          "name": "",
          "type": "uint256"
        }
      ],
      "stateMutability": "view",
      "type": "function"
    },
    {
      "inputs": [],
      "name": "platformFeeRatio",
      "outputs": [
        {
          "internalType": "uint16",
          "name": "",
          "type": "uint16"
        }
      ],
      "stateMutability": "view",
      "type": "function"
    },
    {
      "inputs": [
        {
          "internalType": "uint256",
          "name": "_positionId",
          "type": "uint256"
        },
        {
          "internalType": "uint256",
          "name": "_amount",
          "type": "uint256"
        },
        {
          "internalType": "uint32",
          "name": "_newAmountOfSwaps",
          "type": "uint32"
        },
        {
          "internalType": "address",
          "name": "_recipient",
          "type": "address"
        }
      ],
      "name": "reducePosition",
      "outputs": [],
      "stateMutability": "nonpayable",
      "type": "function"
    },
    {
      "inputs": [
        {
          "internalType": "uint32[]",
          "name": "_swapIntervals",
          "type": "uint32[]"
        }
      ],
      "name": "removeSwapIntervalsFromAllowedList",
      "outputs": [],
      "stateMutability": "nonpayable",
      "type": "function"
    },
    {
      "inputs": [
        {
          "internalType": "bytes32",
          "name": "role",
          "type": "bytes32"
        },
        {
          "internalType": "address",
          "name": "account",
          "type": "address"
        }
      ],
      "name": "renounceRole",
      "outputs": [],
      "stateMutability": "nonpayable",
      "type": "function"
    },
    {
      "inputs": [
        {
          "internalType": "bytes32",
          "name": "role",
          "type": "bytes32"
        },
        {
          "internalType": "address",
          "name": "account",
          "type": "address"
        }
      ],
      "name": "revokeRole",
      "outputs": [],
      "stateMutability": "nonpayable",
      "type": "function"
    },
    {
      "inputs": [
        {
          "internalType": "uint32",
          "name": "_loanFee",
          "type": "uint32"
        }
      ],
      "name": "setLoanFee",
      "outputs": [],
      "stateMutability": "nonpayable",
      "type": "function"
    },
    {
      "inputs": [
        {
          "internalType": "contract IPriceOracle",
          "name": "_oracle",
          "type": "address"
        }
      ],
      "name": "setOracle",
      "outputs": [],
      "stateMutability": "nonpayable",
      "type": "function"
    },
    {
      "inputs": [
        {
          "internalType": "uint16",
          "name": "_platformFeeRatio",
          "type": "uint16"
        }
      ],
      "name": "setPlatformFeeRatio",
      "outputs": [],
      "stateMutability": "nonpayable",
      "type": "function"
    },
    {
      "inputs": [
        {
          "internalType": "uint32",
          "name": "_swapFee",
          "type": "uint32"
        }
      ],
      "name": "setSwapFee",
      "outputs": [],
      "stateMutability": "nonpayable",
      "type": "function"
    },
    {
      "inputs": [
        {
          "internalType": "bytes4",
          "name": "interfaceId",
          "type": "bytes4"
        }
      ],
      "name": "supportsInterface",
      "outputs": [
        {
          "internalType": "bool",
          "name": "",
          "type": "bool"
        }
      ],
      "stateMutability": "view",
      "type": "function"
    },
    {
      "inputs": [
        {
          "internalType": "address[]",
          "name": "_tokens",
          "type": "address[]"
        },
        {
          "components": [
            {
              "internalType": "uint8",
              "name": "indexTokenA",
              "type": "uint8"
            },
            {
              "internalType": "uint8",
              "name": "indexTokenB",
              "type": "uint8"
            }
          ],
          "internalType": "struct IDCAHubSwapHandler.PairIndexes[]",
          "name": "_pairsToSwap",
          "type": "tuple[]"
        },
        {
          "internalType": "address",
          "name": "_rewardRecipient",
          "type": "address"
        },
        {
          "internalType": "address",
          "name": "_callbackHandler",
          "type": "address"
        },
        {
          "internalType": "uint256[]",
          "name": "_borrow",
          "type": "uint256[]"
        },
        {
          "internalType": "bytes",
          "name": "_data",
          "type": "bytes"
        }
      ],
      "name": "swap",
      "outputs": [
        {
          "components": [
            {
              "components": [
                {
                  "internalType": "address",
                  "name": "token",
                  "type": "address"
                },
                {
                  "internalType": "uint256",
                  "name": "reward",
                  "type": "uint256"
                },
                {
                  "internalType": "uint256",
                  "name": "toProvide",
                  "type": "uint256"
                },
                {
                  "internalType": "uint256",
                  "name": "platformFee",
                  "type": "uint256"
                }
              ],
              "internalType": "struct IDCAHubSwapHandler.TokenInSwap[]",
              "name": "tokens",
              "type": "tuple[]"
            },
            {
              "components": [
                {
                  "internalType": "address",
                  "name": "tokenA",
                  "type": "address"
                },
                {
                  "internalType": "address",
                  "name": "tokenB",
                  "type": "address"
                },
                {
                  "internalType": "uint256",
                  "name": "ratioAToB",
                  "type": "uint256"
                },
                {
                  "internalType": "uint256",
                  "name": "ratioBToA",
                  "type": "uint256"
                },
                {
                  "internalType": "bytes1",
                  "name": "intervalsInSwap",
                  "type": "bytes1"
                }
              ],
              "internalType": "struct IDCAHubSwapHandler.PairInSwap[]",
              "name": "pairs",
              "type": "tuple[]"
            }
          ],
          "internalType": "struct IDCAHubSwapHandler.SwapInfo",
          "name": "_swapInformation",
          "type": "tuple"
        }
      ],
      "stateMutability": "nonpayable",
      "type": "function"
    },
    {
      "inputs": [
        {
          "internalType": "address",
          "name": "_tokenA",
          "type": "address"
        },
        {
          "internalType": "address",
          "name": "_tokenB",
          "type": "address"
        },
        {
          "internalType": "bytes1",
          "name": "_swapIntervalMask",
          "type": "bytes1"
        },
        {
          "internalType": "uint32",
          "name": "_swapNumber",
          "type": "uint32"
        }
      ],
      "name": "swapAmountDelta",
      "outputs": [
        {
          "components": [
            {
              "internalType": "int128",
              "name": "swapDeltaAToB",
              "type": "int128"
            },
            {
              "internalType": "int128",
              "name": "swapDeltaBToA",
              "type": "int128"
            }
          ],
          "internalType": "struct IDCAHubParameters.SwapDelta",
          "name": "",
          "type": "tuple"
        }
      ],
      "stateMutability": "view",
      "type": "function"
    },
    {
      "inputs": [
        {
          "internalType": "address",
          "name": "_tokenA",
          "type": "address"
        },
        {
          "internalType": "address",
          "name": "_tokenB",
          "type": "address"
        },
        {
          "internalType": "bytes1",
          "name": "_swapIntervalMask",
          "type": "bytes1"
        }
      ],
      "name": "swapData",
      "outputs": [
        {
          "components": [
            {
              "internalType": "uint32",
              "name": "performedSwaps",
              "type": "uint32"
            },
            {
              "internalType": "uint224",
              "name": "nextAmountToSwapAToB",
              "type": "uint224"
            },
            {
              "internalType": "uint32",
              "name": "lastSwappedAt",
              "type": "uint32"
            },
            {
              "internalType": "uint224",
              "name": "nextAmountToSwapBToA",
              "type": "uint224"
            }
          ],
          "internalType": "struct IDCAHubParameters.SwapData",
          "name": "",
          "type": "tuple"
        }
      ],
      "stateMutability": "view",
      "type": "function"
    },
    {
      "inputs": [],
      "name": "swapFee",
      "outputs": [
        {
          "internalType": "uint32",
          "name": "",
          "type": "uint32"
        }
      ],
      "stateMutability": "view",
      "type": "function"
    },
    {
      "inputs": [
        {
          "internalType": "uint256",
          "name": "_positionId",
          "type": "uint256"
        },
        {
          "internalType": "address",
          "name": "_recipientUnswapped",
          "type": "address"
        },
        {
          "internalType": "address",
          "name": "_recipientSwapped",
          "type": "address"
        }
      ],
      "name": "terminate",
      "outputs": [
        {
          "internalType": "uint256",
          "name": "_unswapped",
          "type": "uint256"
        },
        {
          "internalType": "uint256",
          "name": "_swapped",
          "type": "uint256"
        }
      ],
      "stateMutability": "nonpayable",
      "type": "function"
    },
    {
      "inputs": [],
      "name": "unpause",
      "outputs": [],
      "stateMutability": "nonpayable",
      "type": "function"
    },
    {
      "inputs": [
        {
          "internalType": "uint256",
          "name": "_positionId",
          "type": "uint256"
        }
      ],
      "name": "userPosition",
      "outputs": [
        {
          "components": [
            {
              "internalType": "contract IERC20Metadata",
              "name": "from",
              "type": "address"
            },
            {
              "internalType": "contract IERC20Metadata",
              "name": "to",
              "type": "address"
            },
            {
              "internalType": "uint32",
              "name": "swapInterval",
              "type": "uint32"
            },
            {
              "internalType": "uint32",
              "name": "swapsExecuted",
              "type": "uint32"
            },
            {
              "internalType": "uint256",
              "name": "swapped",
              "type": "uint256"
            },
            {
              "internalType": "uint32",
              "name": "swapsLeft",
              "type": "uint32"
            },
            {
              "internalType": "uint256",
              "name": "remaining",
              "type": "uint256"
            },
            {
              "internalType": "uint120",
              "name": "rate",
              "type": "uint120"
            }
          ],
          "internalType": "struct IDCAHubPositionHandler.UserPosition",
          "name": "_userPosition",
          "type": "tuple"
        }
      ],
      "stateMutability": "view",
      "type": "function"
    },
    {
      "inputs": [
        {
          "components": [
            {
              "internalType": "address",
              "name": "token",
              "type": "address"
            },
            {
              "internalType": "uint256",
              "name": "amount",
              "type": "uint256"
            }
          ],
          "internalType": "struct IDCAHub.AmountOfToken[]",
          "name": "_amounts",
          "type": "tuple[]"
        },
        {
          "internalType": "address",
          "name": "_recipient",
          "type": "address"
        }
      ],
      "name": "withdrawFromPlatformBalance",
      "outputs": [],
      "stateMutability": "nonpayable",
      "type": "function"
    },
    {
      "inputs": [
        {
          "internalType": "uint256",
          "name": "_positionId",
          "type": "uint256"
        },
        {
          "internalType": "address",
          "name": "_recipient",
          "type": "address"
        }
      ],
      "name": "withdrawSwapped",
      "outputs": [
        {
          "internalType": "uint256",
          "name": "",
          "type": "uint256"
        }
      ],
      "stateMutability": "nonpayable",
      "type": "function"
    },
    {
      "inputs": [
        {
          "components": [
            {
              "internalType": "address",
              "name": "token",
              "type": "address"
            },
            {
              "internalType": "uint256[]",
              "name": "positionIds",
              "type": "uint256[]"
            }
          ],
          "internalType": "struct IDCAHubPositionHandler.PositionSet[]",
          "name": "_positions",
          "type": "tuple[]"
        },
        {
          "internalType": "address",
          "name": "_recipient",
          "type": "address"
        }
      ],
      "name": "withdrawSwappedMany",
      "outputs": [
        {
          "internalType": "uint256[]",
          "name": "_swapped",
          "type": "uint256[]"
        }
      ],
      "stateMutability": "nonpayable",
      "type": "function"
    }
  ],
  "bytecode": "0x60806040527f313f8c5ec4103e5607b5d8b3519ab06a512037396eaf72a07527d8b838012ed46008557ffb63867dc303889c4e19b6276d834e066500dd4210f4434d34089a246beec82a6009557f73c06b41830ea810d4e9dd3dfb0309555fbff1642391fb7644bc4a0b0f7a77fd600a55612710600a62000081919062000349565b600b805462ffffff9290921663ffffffff63ffffffff60c01b01199092169190911761017760c41b176001600160e01b0316607d60e31b179055600c805462ffffff1916621388f0179055348015620000d957600080fd5b50604051620063bc380380620063bc833981016040819052620000fc9162000399565b60016000556007805460ff19169055808484846001600160a01b03831615806200012d57506001600160a01b038216155b806200014057506001600160a01b038116155b156200015f5760405163d92e233d60e01b815260040160405180910390fd5b6008546200016e90846200021f565b6009546200017d90836200021f565b62000193600a546009546200022f60201b60201c565b600854620001a290806200022f565b600954620001b190806200022f565b600b80546001600160a01b0390921664010000000002600160201b600160c01b031990921691909117905550620001ea9050816200027a565b600c80546001600160a01b039092166301000000026301000000600160b81b0319909216919091179055506200040192505050565b6200022b8282620002a5565b5050565b600082815260066020526040808220600101805490849055905190918391839186917fbd79b86ffe0ab8e8776151514217cd7cacd52c909f66475c3af44e129f0b00ff9190a4505050565b6001600160a01b038116620002a25760405163d92e233d60e01b815260040160405180910390fd5b50565b60008281526006602090815260408083206001600160a01b038516845290915290205460ff166200022b5760008281526006602090815260408083206001600160a01b03851684529091529020805460ff19166001179055620003053390565b6001600160a01b0316816001600160a01b0316837f2f8788117e7eff1d82e926ec794901d17c78024a50270940304540a733656f0d60405160405180910390a45050565b600062ffffff808316818516818304811182151516156200037a57634e487b7160e01b600052601160045260246000fd5b02949350505050565b6001600160a01b0381168114620002a257600080fd5b60008060008060808587031215620003b057600080fd5b8451620003bd8162000383565b6020860151909450620003d08162000383565b6040860151909350620003e38162000383565b6060860151909250620003f68162000383565b939692955090935050565b615fab80620004116000396000f3fe608060405234801561001057600080fd5b50600436106102745760003560e01c806371651aa911610151578063bc063e1a116100c3578063d6d788c311610087578063d6d788c31461068b578063da90b03a1461069e578063ded700a6146106b1578063e63a391f146106c4578063f1accf39146106cc578063fc448158146106df57600080fd5b8063bc063e1a1461061b578063c67e32e91461062b578063cc7a20491461064b578063d2d95b2d14610665578063d547741f1461067857600080fd5b80637dc0d1d0116101155780637dc0d1d01461054e578063808ba8e0146105805780638456cb59146105e157806391d14854146105e95780639bcb5572146105fc578063a217fddf1461061357600080fd5b806371651aa9146104e457806372ada4c5146104f75780637adbf9731461051f5780637d361dd3146105325780637d8e86031461053b57600080fd5b8063480e5da1116101ea57806357ae1cec116101ae57806357ae1cec14610455578063582cf84b146104685780635b6fd01d146104965780635c975abb146104b65780636b29e1bd146104be5780636eefd134146104d157600080fd5b8063480e5da1146103b25780634aa91aee146103d85780634eeeb3eb1461040d57806354cf2aeb14610416578063560c64991461044257600080fd5b80632a2a1a741161023c5780632a2a1a741461032f5780632f2ff15d1461034f57806336568abe146103645780633f4ba83a146103775780633feb14931461037f578063480b37961461039257600080fd5b806301ffc9a7146102795780630b1aa984146102a157806317621890146102cf5780631b8b8c34146102f0578063248a9ca31461030c575b600080fd5b61028c610287366004614c4b565b6106e8565b60405190151581526020015b60405180910390f35b6102b46102af366004614cc6565b61071f565b60408051825181526020928301519281019290925201610298565b6102e26102dd366004614d1e565b6107a9565b604051908152602001610298565b6102f961271081565b60405161ffff9091168152602001610298565b6102e261031a366004614d4e565b60009081526006602052604090206001015490565b61034261033d366004614e30565b610867565b604051610298919061500b565b61036261035d366004614d1e565b610e6f565b005b610362610372366004614d1e565b610e9a565b610362610f18565b61036261038d36600461501e565b610f30565b6103a56103a036600461505f565b610fe2565b60405161029891906150f0565b600c546103bf9060f81b81565b6040516001600160f81b03199091168152602001610298565b6103eb6103e6366004614cc6565b611249565b604080518251600f90810b8252602093840151900b9281019290925201610298565b6102e260095481565b600b5461042d90600160c01b900463ffffffff1681565b60405163ffffffff9091168152602001610298565b610362610450366004615103565b6112df565b600c546102f990610100900461ffff1681565b6103bf61047636600461513a565b600160209081526000928352604080842090915290825290205460f81b81565b6104a96104a4366004614d4e565b61145f565b6040516102989190615168565b61028c61161d565b6102e26104cc3660046151ec565b61162c565b6103626104df366004615291565b611a01565b6103626104f23660046152b5565b611a89565b61050a610505366004615339565b611f6a565b60408051928352602083019190915201610298565b61036261052d366004615370565b6121dc565b6102e260085481565b61036261054936600461501e565b61224d565b600b5461056890600160201b90046001600160a01b031681565b6040516001600160a01b039091168152602001610298565b61059361058e36600461538d565b6122d7565b60408051825163ffffffff90811682526020808501516001600160e01b0390811691840191909152848401519091169282019290925260609283015190911691810191909152608001610298565b610362612393565b61028c6105f7366004614d1e565b6123a8565b600b5461042d90600160e01b900463ffffffff1681565b6102e2600081565b600b5461042d9063ffffffff1681565b6102e2610639366004615370565b60026020526000908152604090205481565b600c5461056890630100000090046001600160a01b031681565b6103426106733660046153d4565b6123d3565b610362610686366004614d1e565b612b49565b61036261069936600461543f565b612b6f565b6103626106ac36600461543f565b612bd9565b6103626106bf36600461545a565b612c42565b61271061042d565b6103626106da366004615486565b612ca6565b6102e2600a5481565b60006001600160e01b03198216637965db0b60e01b148061071957506301ffc9a760e01b6001600160e01b03198316145b92915050565b60408051808201909152600080825260208201526000806107408787612cee565b6001600160a01b0391821660009081526004602090815260408083209390941682529182528281206001600160f81b031989168252825282812063ffffffff8816825282528290208251808401909352805483526001015490820152925050505b949350505050565b6000600260005414156107d75760405162461bcd60e51b81526004016107ce906154ce565b60405180910390fd5b60026000556107e582612d1f565b6000806107f185612d46565b909250905061080a6001600160a01b0382168584612e56565b604080518681526001600160a01b0383811660208301529181018490529085169033907fcade65431cead780eb2b14b84a6594e1b235278a02e31abf3fc04c7c3e8ab4ee9060600160405180910390a35060016000559392505050565b60408051808201909152606080825260208201526002600054141561089e5760405162461bcd60e51b81526004016107ce906154ce565b60026000556108ab61161d565b156108c85760405162461bcd60e51b81526004016107ce90615505565b600b54600160c01b900463ffffffff166108e48c8c8c8c6123d3565b9150426000805b8460200151518110156109dd576000856020015182815181106109105761091061552f565b60209081029190910101516080810151909150600160f81b5b6001600160f81b03198082169083161080159061094f57506001600160f81b0319811615155b156109b057806001600160f81b0319168183166001600160f81b03191614156109a2576109a2836000015184602001518361098e8b8860400151612eb9565b61099c8c8960600151612eb9565b8b612eef565b60011b607f60f91b16610929565b84806109c557506001600160f81b0319821615155b945050505080806109d59061555b565b9150506108eb565b50806109fc576040516346f8d7b160e11b815260040160405180910390fd5b50508151516000906001600160401b03811115610a1b57610a1b615576565b604051908082528060200260200182016040528015610a44578160200160208202803683370190505b50905060005b835151811015610bed57600084600001518281518110610a6c57610a6c61552f565b602002602001015190506000898984818110610a8a57610a8a61552f565b905060200201359050600082604001511180610aa65750600081115b15610b445781516040516370a0823160e01b81523060048201526001600160a01b03909116906370a082319060240160206040518083038186803b158015610aed57600080fd5b505afa158015610b01573d6000803e3d6000fd5b505050506040513d601f19601f82011682018060405250810190610b25919061558c565b848481518110610b3757610b3761552f565b6020026020010181815250505b8a6001600160a01b03168c6001600160a01b03161415610b94576000818360200151610b7091906155a5565b90508015610b8e578251610b8e906001600160a01b03168d83612e56565b50610bd8565b602082015115610bbc5760208201518251610bbc916001600160a01b03909116908e90612e56565b8015610bd8578151610bd8906001600160a01b03168c83612e56565b50508080610be59061555b565b915050610a4a565b508251604051632c0be4cf60e11b81526001600160a01b038a1691635817c99e91610c249133918c908c908c908c9060040161561c565b600060405180830381600087803b158015610c3e57600080fd5b505af1158015610c52573d6000803e3d6000fd5b5050505060005b835151811015610dfe57600084600001518281518110610c7b57610c7b61552f565b60200260200101519050600081606001519050600082604001511180610cb9575060008a8a85818110610cb057610cb061552f565b90506020020135115b15610db457600082602001518360400151868681518110610cdc57610cdc61552f565b6020026020010151610cee91906155a5565b610cf891906156c9565b83516040516370a0823160e01b81523060048201529192506000916001600160a01b03909116906370a082319060240160206040518083038186803b158015610d4057600080fd5b505afa158015610d54573d6000803e3d6000fd5b505050506040513d601f19601f82011682018060405250810190610d78919061558c565b905081811015610d9b5760405163d562e29f60e01b815260040160405180910390fd5b610da582826156c9565b610daf90846155a5565b925050505b8015610de95781516001600160a01b031660009081526002602052604081208054839290610de39084906155a5565b90915550505b50508080610df69061555b565b915050610c59565b50876001600160a01b0316896001600160a01b0316336001600160a01b03167fa1ec3a0d95701d84ce597ac1f6789b13a582504554c8aa7ec2be74470639c8e5868b8b88604051610e5294939291906156e0565b60405180910390a4505060016000559a9950505050505050505050565b600082815260066020526040902060010154610e8b813361328a565b610e9583836132ee565b505050565b6001600160a01b0381163314610f0a5760405162461bcd60e51b815260206004820152602f60248201527f416363657373436f6e74726f6c3a2063616e206f6e6c792072656e6f756e636560448201526e103937b632b9903337b91039b2b63360891b60648201526084016107ce565b610f148282613374565b5050565b600854610f25813361328a565b610f2d6133db565b50565b600854610f3d813361328a565b60005b82811015610fa357610f77848483818110610f5d57610f5d61552f565b9050602002016020810190610f72919061543f565b613470565b600c805460ff19811660f891821b93909317901c91909117905580610f9b8161555b565b915050610f40565b507fd691741464555eddf67afe8f82b0cbe92f8859926856aec4a48a106ceb1b1bee8383604051610fd592919061571e565b60405180910390a1505050565b6060600260005414156110075760405162461bcd60e51b81526004016107ce906154ce565b600260005561101582612d1f565b826001600160401b0381111561102d5761102d615576565b604051908082528060200260200182016040528015611056578160200160208202803683370190505b50905060005b838110156111ed5760008585838181106110785761107861552f565b905060200281019061108a9190615767565b611098906020810190615370565b905060005b8686848181106110af576110af61552f565b90506020028101906110c19190615767565b6110cf906020810190615787565b90508110156111a25760008061112c8989878181106110f0576110f061552f565b90506020028101906111029190615767565b611110906020810190615787565b858181106111205761112061552f565b90506020020135612d46565b91509150836001600160a01b0316816001600160a01b0316146111625760405163305663b560e11b815260040160405180910390fd5b818686815181106111755761117561552f565b6020026020010181815161118991906155a5565b90525082915061119a90508161555b565b91505061109d565b506111da848484815181106111b9576111b961552f565b6020026020010151836001600160a01b0316612e569092919063ffffffff16565b50806111e58161555b565b91505061105c565b50816001600160a01b0316336001600160a01b03167fdc1e0c1e1b707ce83f3d3a8c66a6abc1d23d95f81a61fc1f578355e0d968fd2d86868560405161123593929190615837565b60405180910390a360016000559392505050565b604080518082019091526000808252602082015260008061126a8787612cee565b6001600160a01b0391821660009081526003602090815260408083209490931682529283528181206001600160f81b031989168252835281812063ffffffff881682528352819020815180830190925254600f81810b8352600160801b909104900b9181019190915292505050949350505050565b600260005414156113025760405162461bcd60e51b81526004016107ce906154ce565b6002600055600a54611314813361328a565b60005b83811015611406578484828181106113315761133161552f565b90506040020160200135600260008787858181106113515761135161552f565b6113679260206040909202019081019150615370565b6001600160a01b03166001600160a01b03168152602001908152602001600020600082825461139691906156c9565b909155506113f49050838686848181106113b2576113b261552f565b905060400201602001358787858181106113ce576113ce61552f565b6113e49260206040909202019081019150615370565b6001600160a01b03169190612e56565b806113fe8161555b565b915050611317565b50816001600160a01b0316336001600160a01b03167fc372140441ddd3b3a7319bbc36cbc33b5600b15c211eda1d1fc9d35bb7ebb3a8868660405161144c92919061591b565b60405180910390a3505060016000555050565b6040805161010081018252600080825260208201819052918101829052606081018290526080810182905260a0810182905260c0810182905260e08101919091526000828152600d60209081526040808320815160e081018352815463ffffffff8082168352600160201b82041694820194909452600160401b840460f81b6001600160f81b031916928101839052600160481b84046001600160a01b0390811660608301819052600160e81b90950462ffffff1660808301526001909201546001600160601b03811660a0830152600160601b900490911660c0820181905290939261154e92909190613564565b905060006115608284602001516135bf565b60608401516001600160a01b03908116865260c0850151166020860152835190915061158d9082906135e0565b63ffffffff16606085015260208301516115a790836135e0565b63ffffffff1660a08501526115bc8383613606565b60c08501526115ca83613638565b6001600160781b031660e085015260408301516001600160f81b03191615611615576115f98360400151613669565b63ffffffff16604085015261160f85848461377d565b60808501525b505050919050565b60006116276139db565b905090565b6000600260005414156116515760405162461bcd60e51b81526004016107ce906154ce565b600260005561165e61161d565b1561167b5760405162461bcd60e51b81526004016107ce90615505565b6001600160a01b038916158061169857506001600160a01b038816155b806116aa57506001600160a01b038416155b156116c85760405163d92e233d60e01b815260040160405180910390fd5b876001600160a01b0316896001600160a01b031614156116fb5760405163c1ab6dc160e01b815260040160405180910390fd5b8661171957604051631f2a200560e01b815260040160405180910390fd5b63ffffffff861661173d57604051633c92196b60e11b815260040160405180910390fd5b600061174988886139e9565b90506000600f6000815461175c9061555b565b91829055509050600061177a8c8c8b6117748c613470565b87613a26565b6040810151600c549192506001600160f81b031960f89290921b16166117b357604051638b52594f60e01b815260040160405180910390fd5b600c546040516306d66a1360e31b815263010000009091046001600160a01b0316906336b35098906117ef9085908b908b908b90600401615951565b600060405180830381600087803b15801561180957600080fd5b505af115801561181d573d6000803e3d6000fd5b505050506118308c8c8360400151613aff565b6118458c8c8360400151846020015187613c07565b6000828152600d60209081526040918290208351815492850151938501516060860151608087015163ffffffff93841667ffffffffffffffff1990961695909517600160201b968416969096029590951768010000000000000000600160e81b031916600160401b60f89290921c919091027fffffff0000000000000000000000000000000000000000ffffffffffffffffff1617600160481b6001600160a01b0395861602176001600160e81b0316600160e81b62ffffff9094169390930292909217815560a084015160c08501516001600160601b03909116600160601b9185169190910217600190910155611946918e1690339030908e90613c1d16565b866001600160a01b0316336001600160a01b03167fa4fa2c0474200cf8021e38722891b55354b00a6dfb06a5beae0cdf2fc7dd3578848f8f8d89886000015160016119919190615a32565b60208a810151604080519889526001600160a01b0397881692890192909252949095168686015263ffffffff92831660608701526001600160781b03919091166080860152811660a08501521660c0830152519081900360e00190a35060016000559a9950505050505050505050565b600954611a0e813361328a565b61271061ffff83161115611a35576040516314bc5e9d60e21b815260040160405180910390fd5b600c805462ffff00191661010061ffff8516908102919091179091556040519081527f6c234431526967795ada65665e195191d4b2fc63c9f564d1ea626478325ae9d9906020015b60405180910390a15050565b60026000541415611aac5760405162461bcd60e51b81526004016107ce906154ce565b6002600055611ab961161d565b15611ad65760405162461bcd60e51b81526004016107ce90615505565b600b54600160e01b900463ffffffff166000856001600160401b03811115611b0057611b00615576565b604051908082528060200260200182016040528015611b29578160200160208202803683370190505b50905060005b8151811015611c0857878782818110611b4a57611b4a61552f565b611b609260206040909202019081019150615370565b6040516370a0823160e01b81523060048201526001600160a01b0391909116906370a082319060240160206040518083038186803b158015611ba157600080fd5b505afa158015611bb5573d6000803e3d6000fd5b505050506040513d601f19601f82011682018060405250810190611bd9919061558c565b828281518110611beb57611beb61552f565b602090810291909101015280611c008161555b565b915050611b2f565b5060005b86811015611cf057600081118015611c8e57508787611c2c6001846156c9565b818110611c3b57611c3b61552f565b611c519260206040909202019081019150615370565b6001600160a01b0316888883818110611c6c57611c6c61552f565b611c829260206040909202019081019150615370565b6001600160a01b031611155b15611cac576040516333910aef60e11b815260040160405180910390fd5b611cde86898984818110611cc257611cc261552f565b905060400201602001358a8a858181106113ce576113ce61552f565b80611ce88161555b565b915050611c0c565b5060405163c5dd4f9960e01b81526001600160a01b0386169063c5dd4f9990611d279033908b908b9088908b908b90600401615a5a565b600060405180830381600087803b158015611d4157600080fd5b505af1158015611d55573d6000803e3d6000fd5b5050505060005b86811015611f0c576000888883818110611d7857611d7861552f565b611d8e9260206040909202019081019150615370565b6040516370a0823160e01b81523060048201526001600160a01b0391909116906370a082319060240160206040518083038186803b158015611dcf57600080fd5b505afa158015611de3573d6000803e3d6000fd5b505050506040513d601f19601f82011682018060405250810190611e07919061558c565b9050611e2e848a8a85818110611e1f57611e1f61552f565b90506040020160200135613c5b565b838381518110611e4057611e4061552f565b6020026020010151611e5291906155a5565b811015611e725760405163d562e29f60e01b815260040160405180910390fd5b828281518110611e8457611e8461552f565b602002602001015181611e9791906156c9565b600260008b8b86818110611ead57611ead61552f565b611ec39260206040909202019081019150615370565b6001600160a01b03166001600160a01b031681526020019081526020016000206000828254611ef291906155a5565b90915550829150611f0490508161555b565b915050611d5c565b50846001600160a01b0316336001600160a01b03167ffe7a45edbfa15e95f7bb4e9f70a63c167ef12768b9ab360f861497e3bbbbaa08898986604051611f5493929190615a9e565b60405180910390a3505060016000555050505050565b60008060026000541415611f905760405162461bcd60e51b81526004016107ce906154ce565b60026000556001600160a01b0384161580611fb257506001600160a01b038316155b15611fd05760405163d92e233d60e01b815260040160405180910390fd5b6000858152600d6020908152604091829020825160e081018452815463ffffffff8082168352600160201b82041693820193909352600160401b830460f81b6001600160f81b03191693810193909352600160481b82046001600160a01b039081166060850152600160e81b90920462ffffff166080840152600101546001600160601b03811660a0840152600160601b90041660c082015261207586826003613c7c565b600061208e82606001518360c001518460400151613564565b905061209b87838361377d565b92506120a78282613606565b93506120b38282613d4f565b6000878152600d602052604080822082815560010191909155600c549051630852cd8d60e31b815263010000009091046001600160a01b0316906342966c6890612105908a9060040190815260200190565b600060405180830381600087803b15801561211f57600080fd5b505af1158015612133573d6000803e3d6000fd5b5050505060008311156121595760c0820151612159906001600160a01b03168685612e56565b8315612178576060820151612178906001600160a01b03168786612e56565b60408051888152602081018690529081018490526001600160a01b03808716919088169033907f2577f709b454c4d5c1118a01186dd48d4a6bacf43fe4c26aad2f66a51bf5290d9060600160405180910390a4505060016000559094909350915050565b6009546121e9813361328a565b6121f282612d1f565b600b8054640100000000600160c01b031916600160201b6001600160a01b038516908102919091179091556040519081527f3f32684a32a11dabdbb8c0177de80aa3ae36a004d75210335b49e544e48cd0aa90602001611a7d565b60085461225a813361328a565b60005b828110156122a55761227a848483818110610f5d57610f5d61552f565b600c805460ff198116921960f891821b16901c9190911790558061229d8161555b565b91505061225d565b507fd0359552feffede26fee29bd110dd8e1a3237acd35c7e17a9d3b7330b02f88258383604051610fd592919061571e565b604080516080810182526000808252602082018190529181018290526060810182905290806123068686612cee565b6001600160a01b0391821660009081526005602090815260408083209390941682529182528281206001600160f81b03198816825282528290208251608081018452815463ffffffff80821683526001600160e01b03600160201b9283900481169584019590955260019093015492831694820194909452929004166060820152925050505b9392505050565b6008546123a0813361328a565b610f2d613d8e565b60009182526006602090815260408084206001600160a01b0393909316845291905290205460ff1690565b6040805180820190915260608082526020820152600b54600160c01b810463ffffffff1690600160201b90046001600160a01b03166000866001600160401b0381111561242257612422615576565b60405190808252806020026020018201604052801561244b578160200160208202803683370190505b5090506000876001600160401b0381111561246857612468615576565b604051908082528060200260200182016040528015612491578160200160208202803683370190505b509050856001600160401b038111156124ac576124ac615576565b60405190808252806020026020018201604052801561250557816020015b6040805160a0810182526000808252602080830182905292820181905260608201819052608082015282526000199092019101816124ca5790505b50602086015260005b868110156128a357600088888381811061252a5761252a61552f565b6125409260206040909202019081019150615ad7565b905060008989848181106125565761255661552f565b905060400201602001602081019061256e9190615ad7565b90508060ff168260ff1610158061264a575060008311801561264a575089896125986001866156c9565b8181106125a7576125a761552f565b6125bd9260206040909202019081019150615ad7565b60ff168260ff16108061264a575089896125d86001866156c9565b8181106125e7576125e761552f565b6125fd9260206040909202019081019150615ad7565b60ff168260ff1614801561264a575089896126196001866156c9565b8181106126285761262861552f565b90506040020160200160208101906126409190615ad7565b60ff168160ff1611155b1561266857604051635dd49b5d60e01b815260040160405180910390fd5b6040805160a0810182526000808252602082018190529181018290526060810182905260808101919091528c8c8460ff168181106126a8576126a861552f565b90506020020160208101906126bd9190615370565b6001600160a01b031681528c8c60ff84168181106126dd576126dd61552f565b90506020020160208101906126f29190615370565b6001600160a01b03166020820152805160009061270e90613de8565b9050600061271f8360200151613de8565b905060008061273685600001518660200151613e66565b6001600160f81b03191660808801528b51919350915082908b9060ff8a169081106127635761276361552f565b6020026020010181815161277791906155a5565b905250895181908b9060ff89169081106127935761279361552f565b602002602001018181516127a791906155a5565b905250845160208601516127ca91906001600160781b038088169087168f61401a565b6060870181905260408701919091526127f0906001600160781b0385169083908f6140d2565b898860ff16815181106128055761280561552f565b6020026020010181815161281991906155a5565b9052506040850151612838906001600160781b0386169084908f6140d2565b898760ff168151811061284d5761284d61552f565b6020026020010181815161286191906155a5565b90525060208d015180518691908a90811061287e5761287e61552f565b602002602001018190525050505050505050808061289b9061555b565b91505061250e565b50600c54610100900461ffff16886001600160401b038111156128c8576128c8615576565b60405190808252806020026020018201604052801561292d57816020015b61291a604051806080016040528060006001600160a01b031681526020016000815260200160008152602001600081525090565b8152602001906001900390816128e65790505b50865260005b865151811015612b3b576000811180156129b557508a8a6129556001846156c9565b8181106129645761296461552f565b90506020020160208101906129799190615370565b6001600160a01b03168b8b838181106129945761299461552f565b90506020020160208101906129a99190615370565b6001600160a01b031611155b156129d3576040516333910aef60e11b815260040160405180910390fd5b612a07604051806080016040528060006001600160a01b031681526020016000815260200160008152602001600081525090565b8b8b83818110612a1957612a1961552f565b9050602002016020810190612a2e9190615370565b6001600160a01b031681528351600090859084908110612a5057612a5061552f565b602002602001015190506000868481518110612a6e57612a6e61552f565b602002602001015190506000821180612a875750600081115b15612b03576000612a988a8461411d565b90506000612710612aad61ffff891684615af4565b612ab79190615b29565b90506000612ac58585615b3d565b905081811315612ae357612ad98282615b3d565b6020870152612afb565b81811215612afb57612af58183615b3d565b60408701525b506060850152505b828a600001518581518110612b1a57612b1a61552f565b60200260200101819052505050508080612b339061555b565b915050612933565b505050505050949350505050565b600082815260066020526040902060010154612b65813361328a565b610e958383613374565b600954612b7c813361328a565b612b8582614154565b600b805463ffffffff60c01b1916600160c01b63ffffffff8516908102919091179091556040519081527f5658872a8436367e842f76c14ffbbf8e67a2e70f47b28b3c4154134f72e902d690602001611a7d565b600954612be6813361328a565b612bef82614154565b600b80546001600160e01b0316600160e01b63ffffffff8516908102919091179091556040519081527f6d0851a3fe66369a96f833703a09a7cb561e2eea7bc56bb8f247ac599814150f90602001611a7d565b60026000541415612c655760405162461bcd60e51b81526004016107ce906154ce565b6002600055612c7261161d565b15612c8f5760405162461bcd60e51b81526004016107ce90615505565b612c9c83838360006141b0565b5050600160005550565b60026000541415612cc95760405162461bcd60e51b81526004016107ce906154ce565b6002600055612cd781612d1f565b612ce3848484846141b0565b505060016000555050565b600080826001600160a01b0316846001600160a01b031610612d11578284612d14565b83835b909590945092505050565b6001600160a01b038116610f2d5760405163d92e233d60e01b815260040160405180910390fd5b6000818152600d60209081526040808320815160e081018352815463ffffffff8082168352600160201b82041694820194909452600160401b840460f81b6001600160f81b03191692810192909252600160481b83046001600160a01b039081166060840152600160e81b90930462ffffff166080830152600101546001600160601b03811660a0830152600160601b900490911660c08201528190612dee84826002613c7c565b6000612e0782606001518360c001518460400151613564565b9050612e1485838361377d565b60c0909201516000958652600d60209081526040808820805463ffffffff90951663ffffffff1990951694909417909355600e90529085209490945593915050565b6040516001600160a01b038316602482015260448101829052610e9590849063a9059cbb60e01b906064015b60408051601f198184030181529190526020810180516001600160e01b03166001600160e01b03199093169290921790915261449a565b6000612710612ec9606485615b7c565b612ed590612710615b9f565b612ee59063ffffffff1684615af4565b61238c9190615b29565b6001600160a01b03808716600090815260056020908152604080832093891683529281528282206001600160f81b0319881683528152908290208251608081018452815463ffffffff80821683526001600160e01b03600160201b92839004811695840186905260019094015490811695830195909552909304166060830152151580612f895750600081606001516001600160e01b0316115b15613246576001600160a01b038088166000908152600460209081526040808320938a1683529281528282206001600160f81b0319891683528152828220845163ffffffff1683528152908290208251808401845281548152600190910154918101919091528151808301909252805190919081906130099088906155a5565b815260200185836020015161301e91906155a5565b90526001600160a01b03808a166000908152600460209081526040808320938c1683529281528282206001600160f81b03198b16835290529081208451909190613069906001615a32565b63ffffffff1681526020808201929092526040908101600090812084518155938301516001909401939093556001600160a01b03808c16845260038352818420908b16845282528083206001600160f81b03198a1684529091528120835182906130d4906002615a32565b63ffffffff1681526020808201929092526040908101600020815180830183529054600f81810b8352600160801b909104900b92810192909252805160808101909152845191925090819061312a906001615a32565b63ffffffff1681526020016131478560200151846000015161456c565b6001600160e01b031681526020018563ffffffff1681526020016131738560600151846020015161456c565b6001600160e01b039081169091526001600160a01b03808c166000818152600560209081526040808320948f168084529482528083206001600160f81b03198f168085529083528184208851898501518916600160201b90810263ffffffff9283161783558a8501516060909b01519099169098029890971697909717600190960195909555918152600382528381209281529181528282209382529290925281208451909190613225906002615a32565b63ffffffff1681526020810191909152604001600090812055506132819050565b6001600160a01b038088166000908152600160209081526040808320938a16835292905220805460f881811b881916901c60ff199091161790555b50505050505050565b61329482826123a8565b610f14576132ac816001600160a01b031660146145ac565b6132b78360206145ac565b6040516020016132c8929190615bf0565b60408051601f198184030181529082905262461bcd60e51b82526107ce91600401615c65565b6132f882826123a8565b610f145760008281526006602090815260408083206001600160a01b03851684529091529020805460ff191660011790556133303390565b6001600160a01b0316816001600160a01b0316837f2f8788117e7eff1d82e926ec794901d17c78024a50270940304540a733656f0d60405160405180910390a45050565b61337e82826123a8565b15610f145760008281526006602090815260408083206001600160a01b0385168085529252808320805460ff1916905551339285917ff6391f5c32d9c69d2a47ea670b442974b53935d1edc7fd64eb21e047a839171b9190a45050565b6133e361161d565b6134265760405162461bcd60e51b815260206004820152601460248201527314185d5cd8589b194e881b9bdd081c185d5cd95960621b60448201526064016107ce565b6007805460ff191690557f5db9ee0a495bf2e6ff9c91a7834c1ba4fdd244a5e8aa4e537bd38aeae4b073aa335b6040516001600160a01b03909116815260200160405180910390a1565b60008163ffffffff16603c141561348c5750600160f81b919050565b8163ffffffff1661012c14156134a75750600160f91b919050565b8163ffffffff1661038414156134c25750600160fa1b919050565b8163ffffffff1661070814156134dd5750600160fb1b919050565b8163ffffffff16610e1014156134f85750600160fc1b919050565b8163ffffffff1661384014156135135750600160fd1b919050565b8163ffffffff1662015180141561352f5750600160fe1b919050565b8163ffffffff1662093a80141561354b5750600160ff1b919050565b6040516305fabb6160e41b815260040160405180910390fd5b60008060006135738686612cee565b6001600160a01b0391821660009081526005602090815260408083209490931682529283528181206001600160f81b03198816825290925290205463ffffffff16925050509392505050565b60008163ffffffff168363ffffffff16116135da578261238c565b50919050565b60008163ffffffff168363ffffffff16116135fc57600061238c565b61238c8284615b9f565b600061361183613638565b6001600160781b03166136288460200151846135e0565b63ffffffff1661238c9190615af4565b6000816080015162ffffff1660188360a001516001600160601b03166001600160781b0316901b6107199190615c98565b6000600160f81b6001600160f81b0319831614156136895750603c919050565b600160f91b6001600160f81b0319831614156136a8575061012c919050565b600160fa1b6001600160f81b0319831614156136c75750610384919050565b600160fb1b6001600160f81b0319831614156136e65750610708919050565b600160fc1b6001600160f81b0319831614156137055750610e10919050565b600160fd1b6001600160f81b0319831614156137245750613840919050565b600160fe1b6001600160f81b031983161415613744575062015180919050565b600160ff1b6001600160f81b031983161415613764575062093a80919050565b60405163bf3cad0b60e01b815260040160405180910390fd5b60008061378e8385602001516135bf565b90508063ffffffff16846000015163ffffffff1611156137b257600091505061238c565b8063ffffffff16846000015163ffffffff1614156137e05750506000838152600e602052604090205461238c565b60008460c001516001600160a01b031685606001516001600160a01b0316106138a55760c0850180516001600160a01b03908116600090815260046020818152604080842060608c01805187168652908352818520828d0180516001600160f81b031990811688529185528387208e5163ffffffff90811689529086528488206001908101549a518a1689529686528488209351909816875291845282862091511685528252808420948816845293905291902001546138a091906156c9565b613939565b6060850180516001600160a01b03908116600090815260046020818152604080842060c08c01805187168652908352818520828d0180516001600160f81b031990811688529185528387208e5163ffffffff908116895290865284882054995189168852958552838720925190971686529083528185209551168452938152838320918716835252205461393991906156c9565b9050600061394a8660600151613de8565b6001600160781b03169050600061396087613638565b905060008061397885846001600160781b0316614747565b915091506000826139a6576001600160781b0384166139978688615b29565b6139a19190615af4565b6139b0565b6139b08583615b29565b60008c8152600e60205260409020549091506139cc90826155a5565b9b9a5050505050505050505050565b600061162760075460ff1690565b6000806139fc63ffffffff841685615b29565b90506001600160781b0381111561238c57604051636b2f218360e01b815260040160405180910390fd5b6040805160e081018252600080825260208201819052918101829052606081018290526080810182905260a0810182905260c0810182905290613a6a878786613564565b6040805160e0810190915263ffffffff8216815290915083906001600160601b03601883901c169060208101613aa08986615a32565b63ffffffff168152602001876001600160f81b03191681526020018a6001600160a01b031681526020018362ffffff168152602001826001600160601b03168152602001896001600160a01b0316815250935050505095945050505050565b600080613b0c8585612cee565b6001600160a01b03808316600090815260016020908152604080832093851683529290522054919350915060f81b6001600160f81b031984821616613bff576001600160f81b03198116613bca57600b54604051633faaed9d60e11b81526001600160a01b0385811660048301528481166024830152600160201b90920490911690637f55db3a90604401600060405180830381600087803b158015613bb157600080fd5b505af1158015613bc5573d6000803e3d6000fd5b505050505b6001600160a01b038381166000908152600160209081526040808320938616835292905220805460ff191685831760f81c1790555b505050505050565b613c168585858585600161478f565b5050505050565b6040516001600160a01b0380851660248301528316604482015260648101829052613c559085906323b872dd60e01b90608401612e82565b50505050565b60006064612710613c7263ffffffff861685615af4565b612ee59190615b29565b60408201516001600160f81b031916613ca85760405163673f032f60e11b815260040160405180910390fd5b600c5460405163823abfd960e01b815263010000009091046001600160a01b03169063823abfd990613ce290869033908690600401615cba565b60206040518083038186803b158015613cfa57600080fd5b505afa158015613d0e573d6000803e3d6000fd5b505050506040513d601f19601f82011682018060405250810190613d329190615cdd565b610e9557604051635c427cd960e01b815260040160405180910390fd5b8063ffffffff16826020015163ffffffff161115610f1457610f1482606001518360c0015184604001518560200151613d8787613638565b600061478f565b613d9661161d565b15613db35760405162461bcd60e51b81526004016107ce90615505565b6007805460ff191660011790557f62e78cea01bee320cd4e420270b5ea74000d11b0c9f74754ebdbfc544b05a2586134533390565b6000816001600160a01b031663313ce5676040518163ffffffff1660e01b815260040160206040518083038186803b158015613e2357600080fd5b505afa158015613e37573d6000803e3d6000fd5b505050506040513d601f19601f82011682018060405250810190613e5b9190615cff565b61071990600a615e00565b6001600160a01b0382811660009081526001602090815260408083209385168352929052908120548190819060f81b42600160f81b5b6001600160f81b031980821690841610801590613ec257506001600160f81b0319811615155b15613ffa57806001600160f81b0319168184166001600160f81b0319161415613fec576001600160a01b038089166000908152600560209081526040808320938b1683529281528282206001600160f81b03198516835281528282208351608081018552815463ffffffff80821683526001600160e01b03600160201b9283900481169584019590955260019093015492831695820195909552939004166060830152613f6e83613669565b90508363ffffffff1681828460400151613f889190615b7c565b613f93906001615a32565b613f9d9190615e0f565b63ffffffff161115613fb0575050613ffa565b602082015195831795613fcc906001600160e01b0316896155a5565b975081606001516001600160e01b031687613fe791906155a5565b965050505b60011b607f60f91b16613e9c565b85158015614006575084155b1561401057600093505b5050509250925092565b60405163a513355f60e01b81526001600160a01b0385811660048301526001600160801b03841660248301528681166044830152600091829184169063a513355f9060640160206040518083038186803b15801561407757600080fd5b505afa15801561408b573d6000803e3d6000fd5b505050506040513d601f19601f820116820180604052508101906140af919061558c565b9050806140bc8686615af4565b6140c69190615b29565b91509550959350505050565b6000806140df8385612eb9565b6140e99086615af4565b90506140f58682615b29565b91506141018682615e3b565b1561411457816141108161555b565b9250505b50949350505050565b60008261412d6127106064615e4f565b62ffffff1661413c9190615b9f565b63ffffffff168363ffffffff1683612ee59190615af4565b600b5463ffffffff9081169082161115614181576040516314041af760e31b815260040160405180910390fd5b61418c606482615e71565b63ffffffff1615610f2d576040516358d620b360e01b815260040160405180910390fd5b6000848152600d6020908152604091829020825160e081018452815463ffffffff8082168352600160201b82041693820193909352600160401b830460f81b6001600160f81b03191693810193909352600160481b82046001600160a01b039081166060850152600160e81b90920462ffffff166080840152600101546001600160601b03811660a0840152600160601b9004811660c083015282161561426586838361425e576001613c7c565b6000613c7c565b600061427e83606001518460c001518560400151613564565b9050600061428c8483613606565b90506000836142a45761429f88836156c9565b6142ae565b6142ae88836155a5565b905080158015906142c3575063ffffffff8716155b156142e157604051633c92196b60e11b815260040160405180910390fd5b801580156142f5575060008763ffffffff16115b156142ff57600096505b600063ffffffff88161561431c5761431782896139e9565b61431f565b60005b60008b8152600d602052604081206001810180546bffffffffffffffffffffffff19166001600160601b03601886901c1617905580546001600160e81b0316600160e81b62ffffff85160217905590915061437a8986615a32565b60008c8152600d60205260409020805463ffffffff808416600160201b0267ffffffffffffffff199092169089161717905590506143b98b888761377d565b60008c8152600e60205260409020556143d28786613d4f565b6143eb87606001518860c0015189604001518486613c07565b851561441057606087015161440b906001600160a01b031633308d613c1d565b614429565b6060870151614429906001600160a01b0316898c612e56565b337f1e52a79a98c3fbf6230e862913323047a9c0ec511d2c289b1eeeeb9cc97c5bea8c84614458896001615a32565b604080519384526001600160781b0392909216602084015263ffffffff9081168383015285166060830152519081900360800190a25050505050505050505050565b60006144ef826040518060400160405280602081526020017f5361666545524332303a206c6f772d6c6576656c2063616c6c206661696c6564815250856001600160a01b0316614b509092919063ffffffff16565b805190915015610e95578080602001905181019061450d9190615cdd565b610e955760405162461bcd60e51b815260206004820152602a60248201527f5361666545524332303a204552433230206f7065726174696f6e20646964206e6044820152691bdd081cdd58d8d9595960b21b60648201526084016107ce565b60008082600f0b126145905761458b6001600160801b03831684615e94565b61238c565b61459982615eb6565b61238c906001600160801b031684615edd565b606060006145bb836002615af4565b6145c69060026155a5565b6001600160401b038111156145dd576145dd615576565b6040519080825280601f01601f191660200182016040528015614607576020820181803683370190505b509050600360fc1b816000815181106146225761462261552f565b60200101906001600160f81b031916908160001a905350600f60fb1b816001815181106146515761465161552f565b60200101906001600160f81b031916908160001a9053506000614675846002615af4565b6146809060016155a5565b90505b60018111156146f8576f181899199a1a9b1b9c1cb0b131b232b360811b85600f16601081106146b4576146b461552f565b1a60f81b8282815181106146ca576146ca61552f565b60200101906001600160f81b031916908160001a90535060049490941c936146f181615efd565b9050614683565b50831561238c5760405162461bcd60e51b815260206004820181905260248201527f537472696e67733a20686578206c656e67746820696e73756666696369656e7460448201526064016107ce565b6000808361475b5750600190506000614788565b8383028385828161476e5761476e615b13565b0414614781576000809250925050614788565b6001925090505b9250929050565b6000816147a557826001600160781b03166147b7565b6147b76001600160781b038416615eb6565b9050856001600160a01b0316876001600160a01b0316101561498a578115614865576001600160a01b038781166000908152600560209081526040808320938a1683529281528282206001600160f81b03198916835290522080546001600160781b038516919060049061483c908490600160201b90046001600160e01b0316615e94565b92506101000a8154816001600160e01b0302191690836001600160e01b031602179055506148ed565b6001600160a01b038781166000908152600560209081526040808320938a1683529281528282206001600160f81b03198916835290522080546001600160781b03851691906004906148c8908490600160201b90046001600160e01b0316615edd565b92506101000a8154816001600160e01b0302191690836001600160e01b031602179055505b6001600160a01b038088166000908152600360209081526040808320938a1683529281528282206001600160f81b03198916835290529081208291614933876001615a32565b63ffffffff16815260208101919091526040016000908120805490919061495e908490600f0b615f14565b92506101000a8154816001600160801b030219169083600f0b6001600160801b03160217905550613281565b8115614a1f576001600160a01b038681166000908152600560209081526040808320938b1683529281528282206001600160f81b03198916835290522060010180546001600160781b03851691906004906149f6908490600160201b90046001600160e01b0316615e94565b92506101000a8154816001600160e01b0302191690836001600160e01b03160217905550614aaa565b6001600160a01b038681166000908152600560209081526040808320938b1683529281528282206001600160f81b03198916835290522060010180546001600160781b0385169190600490614a85908490600160201b90046001600160e01b0316615edd565b92506101000a8154816001600160e01b0302191690836001600160e01b031602179055505b6001600160a01b038087166000908152600360209081526040808320938b1683529281528282206001600160f81b03198916835290529081208291614af0876001615a32565b63ffffffff16815260208101919091526040016000208054601090614b20908490600160801b9004600f0b615f14565b92506101000a8154816001600160801b030219169083600f0b6001600160801b0316021790555050505050505050565b60606107a1848460008585843b614ba95760405162461bcd60e51b815260206004820152601d60248201527f416464726573733a2063616c6c20746f206e6f6e2d636f6e747261637400000060448201526064016107ce565b600080866001600160a01b03168587604051614bc59190615f63565b60006040518083038185875af1925050503d8060008114614c02576040519150601f19603f3d011682016040523d82523d6000602084013e614c07565b606091505b509150915061411082828660608315614c2157508161238c565b825115614c315782518084602001fd5b8160405162461bcd60e51b81526004016107ce9190615c65565b600060208284031215614c5d57600080fd5b81356001600160e01b03198116811461238c57600080fd5b6001600160a01b0381168114610f2d57600080fd5b8035614c9581614c75565b919050565b80356001600160f81b031981168114614c9557600080fd5b803563ffffffff81168114614c9557600080fd5b60008060008060808587031215614cdc57600080fd5b8435614ce781614c75565b93506020850135614cf781614c75565b9250614d0560408601614c9a565b9150614d1360608601614cb2565b905092959194509250565b60008060408385031215614d3157600080fd5b823591506020830135614d4381614c75565b809150509250929050565b600060208284031215614d6057600080fd5b5035919050565b60008083601f840112614d7957600080fd5b5081356001600160401b03811115614d9057600080fd5b6020830191508360208260051b850101111561478857600080fd5b60008083601f840112614dbd57600080fd5b5081356001600160401b03811115614dd457600080fd5b6020830191508360208260061b850101111561478857600080fd5b60008083601f840112614e0157600080fd5b5081356001600160401b03811115614e1857600080fd5b60208301915083602082850101111561478857600080fd5b60008060008060008060008060008060c08b8d031215614e4f57600080fd5b8a356001600160401b0380821115614e6657600080fd5b614e728e838f01614d67565b909c509a5060208d0135915080821115614e8b57600080fd5b614e978e838f01614dab565b909a509850889150614eab60408e01614c8a565b9750614eb960608e01614c8a565b965060808d0135915080821115614ecf57600080fd5b614edb8e838f01614d67565b909650945060a08d0135915080821115614ef457600080fd5b50614f018d828e01614def565b915080935050809150509295989b9194979a5092959850565b8051604080845281518482018190526000926060916020918201918388019190865b82811015614f8357845180516001600160a01b0316855260208082015190860152604080820151908601526060908101519085015260808401948201949350600101614f3c565b50878101518984038a83015280518085529082019450600093820192505b80841015614ffd57845180516001600160a01b039081168552838201511683850152878101518885015286810151878501526080908101516001600160f81b03191690840152938101936001939093019260a090920191614fa1565b509098975050505050505050565b60208152600061238c6020830184614f1a565b6000806020838503121561503157600080fd5b82356001600160401b0381111561504757600080fd5b61505385828601614d67565b90969095509350505050565b60008060006040848603121561507457600080fd5b83356001600160401b0381111561508a57600080fd5b61509686828701614d67565b90945092505060208401356150aa81614c75565b809150509250925092565b600081518084526020808501945080840160005b838110156150e5578151875295820195908201906001016150c9565b509495945050505050565b60208152600061238c60208301846150b5565b60008060006040848603121561511857600080fd5b83356001600160401b0381111561512e57600080fd5b61509686828701614dab565b6000806040838503121561514d57600080fd5b823561515881614c75565b91506020830135614d4381614c75565b60006101008201905060018060a01b0380845116835280602085015116602084015250604083015163ffffffff8082166040850152806060860151166060850152608085015160808501528060a08601511660a0850152505060c083015160c083015260e08301516151e560e08401826001600160781b03169052565b5092915050565b60008060008060008060008060e0898b03121561520857600080fd5b883561521381614c75565b9750602089013561522381614c75565b96506040890135955061523860608a01614cb2565b945061524660808a01614cb2565b935060a089013561525681614c75565b925060c08901356001600160401b0381111561527157600080fd5b61527d8b828c01614d67565b999c989b5096995094979396929594505050565b6000602082840312156152a357600080fd5b813561ffff8116811461238c57600080fd5b6000806000806000606086880312156152cd57600080fd5b85356001600160401b03808211156152e457600080fd5b6152f089838a01614dab565b90975095506020880135915061530582614c75565b9093506040870135908082111561531b57600080fd5b5061532888828901614def565b969995985093965092949392505050565b60008060006060848603121561534e57600080fd5b83359250602084013561536081614c75565b915060408401356150aa81614c75565b60006020828403121561538257600080fd5b813561238c81614c75565b6000806000606084860312156153a257600080fd5b83356153ad81614c75565b925060208401356153bd81614c75565b91506153cb60408501614c9a565b90509250925092565b600080600080604085870312156153ea57600080fd5b84356001600160401b038082111561540157600080fd5b61540d88838901614d67565b9096509450602087013591508082111561542657600080fd5b5061543387828801614dab565b95989497509550505050565b60006020828403121561545157600080fd5b61238c82614cb2565b60008060006060848603121561546f57600080fd5b83359250602084013591506153cb60408501614cb2565b6000806000806080858703121561549c57600080fd5b84359350602085013592506154b360408601614cb2565b915060608501356154c381614c75565b939692955090935050565b6020808252601f908201527f5265656e7472616e637947756172643a207265656e7472616e742063616c6c00604082015260600190565b60208082526010908201526f14185d5cd8589b194e881c185d5cd95960821b604082015260600190565b634e487b7160e01b600052603260045260246000fd5b634e487b7160e01b600052601160045260246000fd5b600060001982141561556f5761556f615545565b5060010190565b634e487b7160e01b600052604160045260246000fd5b60006020828403121561559e57600080fd5b5051919050565b600082198211156155b8576155b8615545565b500190565b81835260006001600160fb1b038311156155d657600080fd5b8260051b8083602087013760009401602001938452509192915050565b81835281816020850137506000828201602090810191909152601f909101601f19169091010190565b6001600160a01b0387168152608060208083018290528751918301829052600091888201919060a0850190845b8181101561569057845180516001600160a01b0316845260208082015190850152604080820151908501526060908101519084015260808301948401949250600101615649565b505084810360408601526156a581898b6155bd565b9250505082810360608401526156bc8185876155f3565b9998505050505050505050565b6000828210156156db576156db615545565b500390565b6060815260006156f36060830187614f1a565b82810360208401526157068186886155bd565b91505063ffffffff8316604083015295945050505050565b60208082528181018390526000908460408401835b8681101561575c5763ffffffff61574984614cb2565b1682529183019190830190600101615733565b509695505050505050565b60008235603e1983360301811261577d57600080fd5b9190910192915050565b6000808335601e1984360301811261579e57600080fd5b8301803591506001600160401b038211156157b857600080fd5b6020019150600581901b360382131561478857600080fd5b6000808335601e198436030181126157e757600080fd5b83016020810192503590506001600160401b0381111561580657600080fd5b8060051b360383131561478857600080fd5b60008235603e1983360301811261582e57600080fd5b90910192915050565b60408082528181018490526000906060600586901b8401810190840187845b888110156158be57868403605f19018352615871828b615818565b803561587c81614c75565b6001600160a01b031685526020615895828201836157d0565b925087828801526158a988880184836155bd565b96505093840193929092019150600101615856565b505050838103602085015261411081866150b5565b8183526000602080850194508260005b858110156150e55781356158f681614c75565b6001600160a01b031687528183013583880152604096870196909101906001016158e3565b6020815260006107a16020830184866158d3565b6004811061594d57634e487b7160e01b600052602160045260246000fd5b9052565b60006060808301878452602060018060a01b0380891682870152604084818801528388855260808801905060808960051b89010194508960005b8a811015615a2057898703607f190183526159a6828d615818565b84880181356159b481614c75565b871689526159c4828901836157d0565b8a8a018890529182905290915060008a8a015b83821015615a0b578235600481106159ee57600080fd5b6159f8828261592f565b50918901916001919091019089016159d7565b9950505092860192509085019060010161598b565b50949c9b505050505050505050505050565b600063ffffffff808316818516808303821115615a5157615a51615545565b01949350505050565b6001600160a01b0387168152608060208201819052600090615a7f90830187896158d3565b63ffffffff8616604084015282810360608401526156bc8185876155f3565b604081526000615ab26040830185876158d3565b905063ffffffff83166020830152949350505050565b60ff81168114610f2d57600080fd5b600060208284031215615ae957600080fd5b813561238c81615ac8565b6000816000190483118215151615615b0e57615b0e615545565b500290565b634e487b7160e01b600052601260045260246000fd5b600082615b3857615b38615b13565b500490565b60008083128015600160ff1b850184121615615b5b57615b5b615545565b6001600160ff1b0384018313811615615b7657615b76615545565b50500390565b600063ffffffff80841680615b9357615b93615b13565b92169190910492915050565b600063ffffffff83811690831681811015615bbc57615bbc615545565b039392505050565b60005b83811015615bdf578181015183820152602001615bc7565b83811115613c555750506000910152565b7f416363657373436f6e74726f6c3a206163636f756e7420000000000000000000815260008351615c28816017850160208801615bc4565b7001034b99036b4b9b9b4b733903937b6329607d1b6017918401918201528351615c59816028840160208801615bc4565b01602801949350505050565b6020815260008251806020840152615c84816040850160208701615bc4565b601f01601f19169190910160400192915050565b60006001600160781b03808316818516808303821115615a5157615a51615545565b8381526001600160a01b0383166020820152606081016107a1604083018461592f565b600060208284031215615cef57600080fd5b8151801515811461238c57600080fd5b600060208284031215615d1157600080fd5b815161238c81615ac8565b600181815b80851115615d57578160001904821115615d3d57615d3d615545565b80851615615d4a57918102915b93841c9390800290615d21565b509250929050565b600082615d6e57506001610719565b81615d7b57506000610719565b8160018114615d915760028114615d9b57615db7565b6001915050610719565b60ff841115615dac57615dac615545565b50506001821b610719565b5060208310610133831016604e8410600b8410161715615dda575081810a610719565b615de48383615d1c565b8060001904821115615df857615df8615545565b029392505050565b600061238c60ff841683615d5f565b600063ffffffff80831681851681830481118215151615615e3257615e32615545565b02949350505050565b600082615e4a57615e4a615b13565b500690565b600062ffffff80831681851681830481118215151615615e3257615e32615545565b600063ffffffff80841680615e8857615e88615b13565b92169190910692915050565b60006001600160e01b03828116848216808303821115615a5157615a51615545565b600081600f0b60016001607f1b0319811415615ed457615ed4615545565b60000392915050565b60006001600160e01b0383811690831681811015615bbc57615bbc615545565b600081615f0c57615f0c615545565b506000190190565b600081600f0b83600f0b600082128260016001607f1b0303821381151615615f3e57615f3e615545565b8260016001607f1b0319038212811615615f5a57615f5a615545565b50019392505050565b6000825161577d818460208701615bc456fea264697066735822122075430d50fe7b2b57c5173eb07163bca898c4dc45bac877e06a067e95fb78b01f64736f6c63430008080033",
  "linkReferences": {},
  "deployedLinkReferences": {}
}